:020000040800F2
:10000000A05B0020790200088F3700081B0E000853
:100010008D370008A1080008613F000800000000BB
:10002000000000000000000000000000E1010008E6
:100030002D0A00080000000025020008193C0008F5
:10004000930200089302000893020008930200083C
:100050009302000893020008310A00089302000886
:10006000610A00088D0A0008B90A00089302000816
:10007000930200089302000893020008930200080C
:1000800093020008930200089302000893020008FC
:1000900093020008930200089302000893020008EC
:1000A00093020008930200089302000893020008DC
:1000B00093020008930200089302000893020008CC
:1000C00093020008930200089302000893020008BC
:1000D0009302000893020008C53D0008930200083F
:1000E000930200089302000893020008930200089C
:1000F000930200089302000893020008930200088C
:10010000930200089302000893020008930200087B
:10011000930200089302000893020008930200086B
:10012000930200089302000893020008930200085B
:1001300000F002F800F045F80AA090E8000C8244B4
:100140008344AAF10107DA4501D100F03AF8AFF291
:10015000090EBAE80F0013F0010F18BFFB1A43F0A5
:10016000010318471875000038750000103A24BFC5
:1001700078C878C1FAD8520724BF30C830C144BF0C
:1001800004680C607047000000230024002500264E
:10019000103A28BF78C1FBD8520728BF30C148BFEA
:1001A0000B607047642900F0BF80782900F0F88068
:1001B000732900F0B982002070471FB51FBD10B52C
:1001C00010BD00F01FFB1146FFF7F7FF03F0AEFF75
:1001D00000F03DFB03B4FFF7F2FF03BC03F0C8FEE1
:1001E000224B19680868B0E8F00F80F30988BFF364
:1001F0006F8F4FF0000080F311884EF00D0E7047A6
:100200000000000006480068006880F3088862B6B5
:1002100061B6BFF34F8FBFF36F8F00DF00BF00BF2A
:1002200008ED00E0EFF30980BFF36F8F0F4B1A6802
:1002300020E9F00F106008B54FF0500080F31188EE
:10024000BFF34F8FBFF36F8F05F0BEFB4FF0000081
:1002500080F31188BDE8084019680868B0E8F00F1D
:1002600080F30988BFF36F8F704700BFA4000020A0
:10027000EFF30580704700000948804709480047B0
:10028000FEE7FEE7FEE7FEE7FEE7FEE7FEE7FEE746
:10029000FEE7FEE704480549054A064B70470000A3
:1002A0002D3C000831010008A0550020A05B002073
:1002B000A0570020A0570020704700000FB4044949
:1002C00010B503AA029800F033FA10BC5DF814FBD5
:1002D0008C00002070B50C460546012A05D0287810
:1002E000800600D5EA69002302E0012305E05B1CDB
:1002F000934202D2E05C0028F9D1A869E618C01A3E
:10030000A861286A184428622846AFF3008004E0F8
:10031000D5E9012114F8010B9047B442F8D32846DF
:10032000AFF3008070BD00002DE9F04106460024C7
:1003300010687529314616A510D0AFF3008000284B
:1003400002DA404213A507E031688A0701D512A5F9
:1003500002E0490704D511A5012401E0AFF30080B4
:1003600000210A2206F1240709E0B0FBF2FCB0FBF1
:10037000F2F302FB1C00303078541846491C002868
:10038000F3D123462A463046BDE8F04100F048B993
:10039000000000002D0000002B00000020000000E5
:1003A00070B504460D4621461068AFF300802188E1
:1003B000090502D50F4A7A4402E00E4A7A440E3209
:1003C000002104F1240305E000F00F060009965D0A
:1003D0005E54491C0028F7D120780023000704D57B
:1003E000702D02D009B1022311322046BDE87040C1
:1003F00000F016B9887200002DE9F05F89460446C6
:100400004FF0000ADFF824B1FB44C0F820A02046DA
:10041000E168884700287DD0252806D0D4E901214D
:100420009047206A401C2062F1E700255F46204685
:10043000E16888472028064607DB312E05D2B81927
:1004400010F8200C08B10543F1E7A80701D525F005
:100450000405C4F81CA00027C4F818A02A2E09D04F
:10046000304603F07EFD38B304EB8708303EC8F811
:10047000186019E059F8041B204604EB87029161CB
:10048000E1688847012F064618D1E069002820DA84
:1004900025F020051DE0D8F8180000EB800006EBE1
:1004A00040003038C8F818002046E1688847064602
:1004B00003F057FD0028EED1012F0AD02E2E08D1CF
:1004C0002046E16888477F1C0646022F45F020053C
:1004D000C4DBA069002803DA404245F00105A061B1
:1004E000E80701D025F01005A6B1A6F141001928B2
:1004F00002D8203645F400654A463146204625603C
:100500004D46FFF74FFE60B1012807D0ED1D25F0E5
:10051000070000E007E000F1080978E705F10409A9
:1005200075E730467AE7206ABDE8F09F5E7200000A
:10053000032A40F2308010F0030C00F0158011F80F
:10054000013BBCF1020F624498BF11F801CB00F8E7
:10055000013B38BF11F8013BA2F1040298BF00F83B
:1005600001CB38BF00F8013B11F0030300F0F2802B
:10057000083AC0F0088051F8043B083A51F804CB1F
:10058000A0E80810F5E7121D5CBF51F8043B40F8E5
:10059000043BAFF30080D20724BF11F8013B11F8F0
:1005A00001CB48BF11F8012B24BF00F8013B00F834
:1005B00001CB48BF00F8012B704702F0FF0343EA6C
:1005C000032242EA024200F0F9B84FF0000200B5FF
:1005D000134694469646203922BFA0E80C50A0E866
:1005E0000C50B1F12001BFF4F7AF090728BFA0E814
:1005F0000C5048BF0CC05DF804EB890028BF40F8E0
:10060000042B08BF704748BF20F8022B11F0804F21
:1006100018BF00F8012B704770477047704770474C
:100620002DE9F0470D4699469246044600F124080C
:100630000168880604D5E06921F01001216000E01E
:100640000120A84201DD471B00E00027A1697A19BB
:1006500002EB0900081AA0612078C00602D42046E7
:10066000AFF30080002608E0D4E901211AF8060063
:100670009047206A401C761C20624E45F4DB2078AF
:10068000C0060AD52046AFF3008006E0D4E9012178
:1006900030209047206A401C2062381EA7F10107D5
:1006A000F4DC07E0D4E9012118F805009047206A3E
:1006B000401C2062281EA5F10105F3DC2046AFF3A3
:1006C00000802078000602D50220BDE8F0870120D6
:1006D000FBE7000001694A1C02610878704700B519
:1006E0008FB0CDE901310021059105497944CDE96B
:1006F000031011466846FFF77FFE0FB000BD0000F3
:10070000E5FFFFFF10B5436913B1AFF3008001E0CF
:10071000FFF7E0FD012010BD127800F124010A70FE
:1007200000224A700122EDE711684FF0FF32E9E73D
:10073000074B70B50D467B44FFF7D1FF04462846B2
:1007400000F05CF810B14FF0FF3070BD204670BD76
:10075000EF38000010B5203AC0F00B80B1E8185017
:10076000203AA0E81850B1E81850A0E81850BFF49B
:10077000F5AF5FEA027C24BFB1E81850A0E818503A
:1007800044BF18C918C0BDE810405FEA827C24BF8E
:1007900051F8043B40F8043B08BF7047D20728BF1C
:1007A00031F8023B48BF11F8012B28BF20F8023B6B
:1007B00048BF00F8012B70474FF000020429C0F039
:1007C000128010F0030C3FF402AFCCF1040CBCF12A
:1007D000020F18BF00F8012BA8BF20F8022BA1EBD5
:1007E0000C01FFF7F4BE5FEAC17C24BF00F8012BC7
:1007F00000F8012B48BF00F8012B7047007B00F088
:1008000080007047754600F02BF8AE46050069463B
:10081000534620F00700854618B020B5FFF73AFD93
:10082000BDE820404FF000064FF000074FF00008F1
:100830004FF0000B21F00701AC46ACE8C009ACE872
:10084000C009ACE8C009ACE8C0098D46704710B5D6
:100850000446AFF300802046BDE81040FFF7BABC65
:10086000004870473C55002038B50121082002F0AF
:10087000E3FF4FF48074ADF8004010208DF80300C2
:100880000320064D8DF802006946284600F06CFAF8
:100890002146284600F0BDFA38BD0000000C01409A
:1008A000FEE7000070B50024104D04E0641CE4B2C3
:1008B000012003F09FFBD5F8100108B1642CF5D39B
:1008C000002404E0641CE4B2012003F093FBD5F89B
:1008D000100108B9642CF5D3282003F08BFBD5F860
:1008E0001001002800D0012070BD0000000021424E
:1008F00070B5002004464006050EFFF7D3FF641CC8
:100900002843E4B2082CF6D370BD00002DE9FC4169
:100910000646002008600D46306000F069F800F0DF
:1009200035F810B10120BDE8FC8100246F46FFF7C7
:10093000DFFF3855641CE4B2052CF8D39DF8001095
:100940009DF801009DF802309DF803400A182344E9
:100950001A44D2B29DF804300B4C00EB012005F094
:1009600079FF214605F080FE28609DF803009DF880
:10097000021000EB012005F06DFF214605F074FE2A
:1009800030600020CFE700000000204170B516481D
:100990000024016821F470210160016841F4002104
:1009A0000160124D04E0641CE4B2012003F022FB5C
:1009B000D5F8100110B1642CF5D30DE0642C0BD2E6
:1009C000002404E0641CE4B2012003F013FBD5F81A
:1009D000100118B1642C04D3012070BD642CF1D334
:1009E000FAE7002070BD000000080140000021422D
:1009F0000C4810B5016821F470210160016841F4D0
:100A000040310160084C0020C4F890011E2004F51C
:100A1000C87403F0D3FA01202060BDE810401E2006
:100A200003F0E8BA000801400000214270470000CE
:100A300010B54FF47A7003F0DDFA0121064800F09A
:100A4000E1F9012802D1054904200860BDE8104001
:100A5000012000F047B800000008014024000020F9
:100A600010B54FF47A7003F0C5FA0421054800F080
:100A7000C9F910B9044903200860BDE810400420FA
:100A800000F030B8001801402400002010B54FF4E9
:100A90007A7003F0AFFA0821054800F0B3F910B9F5
:100AA000044902200860BDE81040082000F01AB890
:100AB000001801402400002010B54FF47A7003F0B4
:100AC00099FA1021054800F09DF910B90449012058
:100AD0000860BDE81040102000F004B80018014084
:100AE0002400002001490860704700001404014000
:100AF00030B51A4A8379016853B313688B43136086
:100B0000111D0B680468A3430B60017911440B6845
:100B1000046823430B60114B083319680468A14330
:100B200019601C1D21680568A943216041791029BD
:100B300005D011440A68006802430A6030BD196894
:100B4000026811431960216800680143216030BDCB
:100B50000079104402688A43026030BD00040140FD
:100B60002DE9FE4300F05AF90121084602F064FE27
:100B70000021084600F0E4F8002501248DF8045017
:100B800008268DF8056000948DF806406846FFF74A
:100B9000AFFF0221042000F0D3F88DF804500C2799
:100BA0004FF004088DF80570CDF800808DF80640F0
:100BB0006846FFF79DFF0321042000F0C1F88DF87F
:100BC00004508DF8057000968DF806406846FFF7D2
:100BD0008FFF0421084600F0B3F810208DF8045070
:100BE00000908DF805708DF806406846FFF780FF8D
:100BF00006258DF808508DF809508DF80A808DF87B
:100C00000B4002A802F0C4FD8DF808608DF8095071
:100C100003208DF80A008DF80B4002A802F0B8FD01
:100C200009208DF808008DF8095002208DF80A007F
:100C30008DF80B4002A802F0ABFD0A208DF80800E9
:100C40008DF809508DF80A408DF80B4002A802F08B
:100C50009FFDBDE8FE8300008000A0F1C040002998
:100C6000016802D041F0010101E0024A1140016037
:100C700070470000FEFF0F0010B5D0E901121143CC
:100C8000D0E903231A431143426911438269114396
:100C9000C2691143026A1143426A1143826A1143D5
:100CA000C26A1143026B114302689200A2F1C04272
:100CB00011608168082907D101688900A1F1C0414C
:100CC0000A6842F040020A60416BD1E9002342EA1F
:100CD00003128B688C891B0243EA04431A430B8A74
:100CE00042EA03520B7D896942EA03620A430168C2
:100CF0008900A1F1C0414A60C16AB1F5804F08D0B6
:100D000000686FF070418000A0F1C040C0F804118D
:100D100010BD816BD1E9002342EA03128B680C8A73
:100D20001B0243EA04531A430B7D896942EA0362BA
:100D300000680A438000A0F1C040C0F8042110BD43
:100D400010B58A0721F003040649120F21440F232E
:100D50008C6893409C438C608B68904003438B600D
:100D600010BD000000000140F0B5CC78002204F076
:100D70000F03E40601D58C7823430C784FF00F0C59
:100D800014F0FF0F4FF0010E1BD005680E880EFA0D
:100D900002F42640A64210D196000CFA06F725EA86
:100DA000070703FA06F5CE783D43282E02D0482ED9
:100DB00002D002E0446100E00461521C082AE5D33D
:100DC00005600A88FF2A1CD94468002202F108063F
:100DD0000EFA06F50E882E40AE420ED196000CFAA1
:100DE00006F7BC4303FA06F7CE783C43282E00D121
:100DF0004561CE78482E00D10561521C082AE5D302
:100E00004460F0BD0246002092680A4200D00120F2
:100E100070474161704701617047FEE738B50121B5
:100E2000442002F009FD0120ADF8000028208DF8D3
:100E3000030003248DF8024069460848FFF794FF39
:100E40001C20ADF8000048208DF803008DF802400A
:100E500069460348FFF788FF38BD000000080140DD
:100E6000001801402DE9F043174F0646002438884A
:100E70007D884543B888A0F5D041043902D1B879BE
:100E8000012807D00021084602F048FB02F044FC8C
:100E90000E4815E00020B8714FF02A09A7F80A9013
:100EA0004FF02B08A7F80C80014602F037FB012019
:100EB000B871A7F80A80A7F80C90E7E70680641CD1
:100EC000AC42FBD3BDE8F083180100200008006CA1
:100ED0002DE9F04F55492C232A242B2522228988DD
:100EE00048F6891648F697184FF04E094FF04F0A0A
:100EF00045F2105B4FF4305EF02718B34B484FF0CB
:100F0000010C80F806C04FF4A07CA0F800C0478018
:100F1000A1F51347413F11D0A1F5A647103F0DD0D1
:100F2000A1F5D047043F55D0B14201D0414555D13C
:100F30000281A0F80AA0A0F80C9065E0038144812A
:100F4000858161E039484FF0000C80F806C00780C9
:100F50004FF4A077A1F5134C4780BCF1410C13D09E
:100F6000A1F5D04CBCF1040C0ED0A1F5A04CBCF501
:100F7000447C09D0B14201D0414514D10281A0F88E
:100F80000A90A0F80CA04CE003814481A1F5D04266
:100F90008581043A03D0A1F5A642103A41D10780D9
:100FA0004FF4F0710EE059450ED1A0F808E04FF46F
:100FB000285141814FF42C5181814FF4F07101800F
:100FC0004FF4487141802CE0028120214181212190
:100FD000818126E003814581848115E059450ED148
:100FE000A0F808E04FF4285242814FF42C5282813D
:100FF0004FF4487202804FF4F072428004E00281A4
:101000002122428120228281A1F5D042043A03D0DC
:10101000A1F5A642103A04D14FF4F0710180A0F876
:1010200002C0BDE8F04F002002F0CEB91801002048
:101030002DE9FE4F0026A2EB000882465F1A701EC3
:1010400035468946B8F1000F02DD4FF0010102E09C
:1010500003D14FF00001019102E0C8F100080190B6
:10106000002F02DD4FF0010002E003D14FF000003D
:10107000009002E0C7F1000700904046B84501DD4E
:10108000044600E03C46601C4FF0000B029015E067
:101090001FFA89F11FFA8AF000F016F846443D4421
:1010A000A64202DD0199361B8A44A54202DD009961
:1010B0002D1B89440BF101001FFA80FB02998B451F
:1010C000E6DDBDE8FE8F000000B502F027FA02F071
:1010D00023FB024802490088088000BD80000020F0
:1010E0000008006CF0B51C4615460E4607460B4638
:1010F000FFF79EFF3A46234631461046FFF798FF1A
:1011000023462A4619463846FFF792FF2A462346C9
:101110003146BDE8F0401046FFF78ABF2DE9F04F99
:1011200001210C029FB0204602F06EFB012140F22B
:10113000691002F081FB0127ADF83C7010268DF894
:101140003F6003208DF83E000FA9FE48FFF70CFE1C
:101150004CF23370ADF83C0018258DF83F50032059
:101160008DF83E000FA9F848FFF7FEFD4FF680709E
:10117000ADF83C008DF83F5003208DF83E000FA9DC
:10118000F248FFF7F1FD41F20100ADF83C008DF8A7
:101190003F5003208DF83E000FA9ED48FFF7E4FD16
:1011A00000200F21CDE918011A901B901C901D9072
:1011B00003211090CDE91101CDE916071490062105
:1011C0001590CDE90010CDE902061390049021019D
:1011D000CDE908010690059007908900CDE90A0144
:1011E0000C9017A80D9010A80E906846FFF744FDCC
:1011F00001210620FFF730FD322002F0DFFE012141
:10120000002002F093FA322002F0D8FE002002F013
:10121000CFF8D04FD04D49F24139AE1CB88046F6D8
:10122000040A45F2103B4FF6FF78FF2804D34045EF
:1012300002D0B0F5134F1CD1D3202880308808EAA3
:1012400000210843B880484513D0BF212980B880C9
:1012500050450ED0D4212980B880584509D04FF48C
:101260005C412980B880B0F5004F02D145F21050A2
:10127000B88081B2B9A0FFF721F8B888484504D1F9
:10128000EF203080112028800AE050450DD1112038
:101290002880142002F092FE2A202880DF2030804F
:1012A000782002F08BFE2920FDE358450AD1552015
:1012B000308011202880642002F080FE822030805F
:1012C0002C20F1E7A0F5AA41103948D0A0F5134130
:1012D0004FF4E06740F2022940F23F154FF4274AED
:1012E00025397CD0FE1DA0F513414FF4017B283930
:1012F00076D0A0F513414FF4887A203971D0A0F54B
:101300001341313901F0F181A0F5A841083901F00C
:10131000C082A0F5A8514FF4407A053901F05583F9
:10132000A0F53541053901F05C84A0F5454105394A
:1013300001F05585A0F50941893901F01986A0F51C
:1013400009419739F9D0A0F58A41313901F0C486B5
:10135000A0F58A41353901F0808701F071BF4FF463
:1013600070435521184602F0E1F94FF20104AA2119
:10137000204602F0DBF9661C5221304602F0D6F915
:10138000A71C0821384602F0D1F94FF204090121C7
:10139000484602F0CBF90D214FF4304002F0C6F977
:1013A0000D214BF2010002F0C1F90D214BF20200B8
:1013B00002F0BCF94FF4364A3421504602F0B6F937
:1013C00034214BF2016002F0B1F934214BF202609A
:1013D00002F0ACF94FF4314B0D21584602E0FCE32A
:1013E000FCE3FCE302F0A2F90D214BF2011002F044
:1013F0009DF90D214BF2021002F098F934214FF4BF
:10140000374002F093F934214BF2017002F08EF96B
:1014100034214BF2027002F089F900214FF432407E
:1014200002F084F900214BF2012002F07FF9002143
:101430004BF2022002F07AF924214FF4384002F0F6
:1014400075F924214BF6010002F070F924214BF6C6
:10145000020002F06BF901214FF43F4002F066F9FF
:101460000F214FF4334002F061F90F214BF20130AC
:1014700002F05CF90F214BF2023002F057F93421EF
:101480004FF4394002F052F934214BF6011002F0CA
:101490004DF934214BF6021002F048F908214FF4BF
:1014A000354002F043F908214BF2015002F03EF9B9
:1014B00008214BF2025002F039F903214FF4424067
:1014C00002F034F924214FF43A4002F02FF924219C
:1014D0004BF6012002F02AF924214BF6022002F0FB
:1014E00025F900214FF43C4002F020F978214BF619
:1014F000014002F01BF900214BF6024002F016F900
:1015000000214FF43D4002F011F978214BF60150D3
:1015100002F00CF900214BF6025002F007F900210D
:101520004FF43E4002F002F964214BF6016002F0F4
:10153000FDF800214FF4514002F0F8F833214DF24C
:10154000011013E0000C014000140140001801409C
:101550000020014018010020FE07006C204C43448D
:101560002049443A25780D0A0000000002F0DEF818
:1015700000214DF2021002F0D9F834214DF203108F
:1015800002F0D4F800214DF2041002F0CFF83A2115
:101590004DF2051002F0CAF800214DF2061002F0DB
:1015A000C5F84A214DF2071002F0C0F800214DF2B3
:1015B000081002F0BBF85C214DF2091002F0B6F8F9
:1015C00000214DF20A1002F0B1F881214DF20B100A
:1015D00002F0ACF800214DF20C1002F0A7F8A621A1
:1015E0004DF20D1002F0A2F800214DF20E1002F0A3
:1015F0009DF8E5214DF20F1002F098F801214DF20F
:10160000101002F093F813214DF2111002F08EF831
:1016100001214DF2121002F089F854214DF21310FD
:1016200002F084F801214DF2141002F07FF88221BB
:101630004DF2151002F07AF801214DF2161002F069
:1016400075F8CA214DF2171002F070F802214DF220
:10165000181002F06BF800214DF2191002F066F834
:1016600002214DF21A1002F061F801214DF21B1017
:1016700002F05CF802214DF21C1002F057F8342100
:101680004DF21D1002F052F802214DF21E1002F030
:101690004DF867214DF21F1002F048F802214DF27B
:1016A000201002F043F884214DF2211002F03EF8A0
:1016B00002214DF2221002F039F8A4214DF223103C
:1016C00002F034F802214DF2241002F02FF8B72175
:1016D0004DF2251002F02AF802214DF2261002F0F8
:1016E00025F8CF214DF2271002F020F802214DF20B
:1016F000281002F01BF8DE214DF2291002F016F836
:1017000002214DF22A1002F011F8F2214DF22B10B5
:1017100002F00CF802214DF22C1002F007F8FE2125
:101720004DF22D1002F002F803214DF22E1001F0BF
:10173000FDFF10214DF22F1001F0F8FF03214DF2B3
:10174000301001F0F3FF33214DF2311001F0EEFFC4
:1017500003214DF2321001F0E9FF6D214DF23310FB
:1017600001F0E4FF00214FF4524001F0DFFF33218C
:101770004DF2012001F0DAFF00214DF2022001F0CC
:10178000D5FF34214DF2032001F0D0FF00214DF2AE
:10179000042001F0CBFF3A214DF2052001F0C6FFF5
:1017A00000214DF2062001F0C1FF4A214DF2072031
:1017B00001F0BCFF00214DF2082001F0B7FF5C21D1
:1017C0004DF2092001F0B2FF00214DF20A2001F094
:1017D000ADFF81214DF20B2001F0A8FF00214DF259
:1017E0000C2001F0A3FFA6214DF20D2001F09EFF79
:1017F00000214DF20E2001F099FFE5214DF20F205E
:1018000001F094FF01214DF2102001F08FFF132110
:101810004DF2112001F08AFF01214DF2122001F05A
:1018200085FF54214DF2132001F080FF01214DF27C
:10183000142001F07BFF82214DF2152001F076FF8C
:1018400001214DF2162001F071FFCA214DF217203F
:1018500001F06CFF02214DF2182001F067FF00211A
:101860004DF2192001F062FF02214DF21A2001F021
:101870005DFF01214DF21B2001F058FF02214DF2C6
:101880001C2001F053FF34214DF21D2001F04EFFCA
:1018900002214DF21E2001F049FF67214DF21F2069
:1018A00001F044FF02214DF2202001F03FFF84218E
:1018B0004DF2212001F03AFF02214DF2222001F0E9
:1018C00035FFA4214DF2232001F030FF02214DF21B
:1018D000242001F02BFFB7214DF2252001F026FF37
:1018E00002214DF2262001F021FFCF214DF22720C9
:1018F00001F01CFF02214DF2282001F017FFDE212C
:101900004DF2292001F012FF02214DF22A2001F0B0
:101910000DFFF2214DF22B2001F008FF02214DF2C4
:101920002C2001F003FFFE214DF22D2001F0FEFEE0
:1019300003214DF22E2001F0F9FE10214DF22F204F
:1019400001F0F4FE03214DF2302001F0EFFE3321CF
:101950004DF2312001F0EAFE03214DF2322001F078
:10196000E5FE6D214DF2332001F0E0FE00214FF441
:10197000534001F0DBFE33214DF2013001F0D6FE81
:1019800000214DF2023001F0D1FE34214DF203303E
:1019900001F0CCFE00214DF2043001F0C7FE3A21E7
:1019A0004DF2053001F0C2FE00214DF2063001F08B
:1019B000BDFE4A214DF2073001F0B8FE00214DF284
:1019C000083001F0B3FE5C214DF2093001F0AEFEAB
:1019D00000214DF20A3001F0A9FE81214DF20B30B9
:1019E00001F0A4FE00214DF20C3001F09FFEA62173
:1019F0004DF20D3001F09AFE00214DF20E3001F053
:101A000095FEE5214DF20F3001F090FE01214DF2DF
:101A1000103001F08BFE13214DF2113001F086FEE3
:101A200001214DF2123001F081FE54214DF21330AC
:101A300001F07CFE01214DF2143001F077FE82218D
:101A40004DF2153001F072FE01214DF2163001F019
:101A50006DFECA214DF2173001F068FE02214DF2F1
:101A6000183001F063FE00214DF2193001F05EFEE6
:101A700002214DF21A3001F059FE01214DF21B30C6
:101A800001F054FE02214DF21C3001F04FFE3421D2
:101A90004DF21D3001F04AFE02214DF21E3001F0E0
:101AA00045FE672100E0F0E34DF21F3001F03EFEFD
:101AB00002214DF2203001F039FE84214DF2213017
:101AC00001F034FE02214DF2223001F02FFEA4215C
:101AD0004DF2233001F02AFE02214DF2243001F0B4
:101AE00025FEB7214DF2253001F020FE02214DF2F6
:101AF000263001F01BFECF214DF2273001F016FEFB
:101B000002214DF2283001F011FEDE214DF2293084
:101B100001F00CFE02214DF22A3001F007FEF22105
:101B20004DF22B3001F002FE02214DF22C3001F07B
:101B3000FDFDFE214DF22D3001F0F8FD03214DF2A7
:101B40002E3001F0F3FD10214DF22F3001F0EEFDAB
:101B500003214DF2303001F0E9FD33214DF23130F7
:101B600001F0E4FD03214DF2323001F0DFFD6D2183
:101B70004DF2333001F0DAFD00214FF4544001F012
:101B8000D5FD33214DF2014001F0D0FD00214DF291
:101B9000024001F0CBFD34214DF2034001F0C6FDBF
:101BA00000214DF2044001F0C1FD3A214DF2054003
:101BB00001F0BCFD00214DF2064001F0B7FD4A21C5
:101BC0004DF2074001F0B2FD00214DF2084001F056
:101BD000ADFD5C214DF2094002E058E3FEE3FEE377
:101BE00001F0A4FD00214DF20A4001F09FFD81218A
:101BF0004DF20B4001F09AFD00214DF20C4001F036
:101C000095FDA6214DF20D4001F090FD00214DF211
:101C10000E4001F08BFDE5214DF20F4001F086FDF5
:101C200001214DF2104001F081FD13214DF21140D0
:101C300001F07CFD01214DF2124001F077FD5421AD
:101C40004DF2134001F072FD01214DF2144001F0FC
:101C50006DFD82214DF2154001F068FD01214DF22C
:101C6000164001F063FDCA214DF2174001F05EFD00
:101C700002214DF2184001F059FD00214DF21940AA
:101C800001F054FD02214DF21A4001F04FFD0121F7
:101C90004DF21B4001F04AFD02214DF21C4001F0C3
:101CA00045FD34214DF21D4001F040FD02214DF271
:101CB0001E4001F03BFD67214DF21F4001F036FD53
:101CC00002214DF2204001F031FD84214DF22140EE
:101CD00001F02CFD02214DF2224001F027FDA4214C
:101CE0004DF2234001F022FD02214DF2244001F08B
:101CF0001DFDB7214DF2254001F018FD02214DF2E6
:101D0000264001F013FDCF214DF2274001F00EFDDA
:101D100002214DF2284001F009FDDE214DF229405B
:101D200001F004FD02214DF22A4001F0FFFCF221F6
:101D30004DF22B4001F0FAFC02214DF22C4001F053
:101D4000F5FCFE214DF22D4001F0F0FC03214DF297
:101D50002E4001F0EBFC10214DF22F4001F0E6FC8B
:101D600003214DF2304001F0E1FC33214DF23140CE
:101D700001F0DCFC03214DF2324001F0D7FC6D2173
:101D80004DF2334001F0D2FC00214FF4554001F0F8
:101D9000CDFC33214DF2015001F0C8FC00214DF281
:101DA000025001F0C3FC34214DF2035001F0BEFC9F
:101DB00000214DF2045001F0B9FC3A214DF20550DA
:101DC00001F0B4FC00214DF2065001F0AFFC4A21B5
:101DD0004DF2075001F0AAFC00214DF2085001F02D
:101DE000A5FC5C214DF2095001F0A0FC00214DF250
:101DF0000A5001F09BFC81214DF20B5001F096FC42
:101E000000214DF20C5001F091FCA6214DF20D5035
:101E100001F08CFC00214DF20E5001F087FCE52111
:101E20004DF20F5001F082FC01214DF2105001F0F3
:101E30007DFC13214DF2115001F078FC01214DF28F
:101E4000125001F073FC54214DF2135001F06EFC5E
:101E500001214DF2145001F069FC82214DF2155020
:101E600001F064FC01214DF2165001F05FFCCA2123
:101E70004DF2175001F05AFC02214DF2185001F0BA
:101E800055FC00214DF2195001F050FC02214DF299
:101E90001A5001F04BFC01214DF21B5001F046FCA1
:101EA00002214DF21C5001F041FC34214DF21D5035
:101EB00001F03CFC02214DF21E5001F037FC67217D
:101EC0004DF21F5001F032FC02214DF2205001F082
:101ED0002DFC84214DF2215001F028FC02214DF20D
:101EE000225001F023FCA4214DF2235001F01EFCEE
:101EF00002214DF2245001F019FCB7214DF225507A
:101F000001F014FC02214DF2265001F00FFCCF210C
:101F10004DF2275001F00AFC02214DF2285001F049
:101F200005FCDE214DF2295001F000FC02214DF2AA
:101F30002A5001F0FBFBF2214DF22B5001F0F6FB91
:101F400002214DF22C5001F0F1FBFE214DF22D50FB
:101F500001F0ECFB03214DF22E5001F0E7FB1021C4
:101F60004DF22F5001F0E2FB03214DF2305001F011
:101F7000DDFB33214DF2315001F0D8FB03214DF24E
:101F8000325001F0D3FB6D214DF2335001F0CEFB06
:101F900000214FF4564001F0C9FB33214DF201609E
:101FA00001F0C4FB00214DF2026001F0BFFB3421BF
:101FB0004DF2036001F0BAFB00214DF2046001F024
:101FC000B5FB3A214DF2056001F0B0FB00214DF266
:101FD000066001F0ABFB4A214DF2076001F0A6FB61
:101FE00000214DF2086001F0A1FB5C214DF2096077
:101FF00001F09CFB00214DF20A6001F097FB81216A
:102000004DF20B6001F092FB00214DF20C6001F0EB
:102010008DFBA6214DF20D6001F088FB00214DF2F1
:102020000E6001F083FBE5214DF20F6001F07EFBB5
:1020300001214DF2106001F079FB13214DF2116086
:1020400001F074FB01214DF2126001F06FFB54218D
:102050004DF2136001F06AFB01214DF2146001F0B2
:1020600065FB82214DF2156001F060FB01214DF20C
:10207000166001F05BFBCA214DF2176001F056FBC0
:1020800002214DF2186001F051FB00214DF2196060
:1020900001F04CFB02214DF21A6001F047FB0121D7
:1020A0004DF21B6001F042FB02214DF21C6001F079
:1020B0003DFB34214DF21D6001F038FB02214DF251
:1020C0001E6001F033FB67214DF21F6001F02EFB13
:1020D00002214DF2206001F029FB84214DF22160A4
:1020E00001F024FB02214DF2226001F01FFBA4212C
:1020F0004DF2236001F01AFB02214DF2246001F041
:1021000015FBB7214DF2256001F010FB02214DF2C5
:10211000266001F00BFBCF214DF2276001F006FB9A
:1021200002214DF2286001F001FBDE214DF2296011
:1021300001F0FCFA02214DF22A6001F0F7FAF221D7
:102140004DF22B6001F0F2FA02214DF22C6001F009
:10215000EDFAFE214DF22D6001F0E8FA03214DF277
:102160002E6001F0E3FA10214DF22F6001F0DEFA4B
:1021700003214DF2306001F0D9FA33214DF2316084
:1021800001F0D4FA03214DF2326001F0CFFA6D2153
:102190004DF2336001F0CAFA5521184601F0C6FA33
:1021A000AA21204601F0C2FA5221304601F0BEFABF
:1021B0000821384601F0BAFA0021484601F0B6FA83
:1021C000CC21584601F0B2FA00214BF2011001F087
:1021D000ADFA0521504601F0A9FA70214FF43740BD
:1021E00001F0A4FA70214BF2017001F09FFA012175
:1021F0004FF4384001F09AFA03214BF6010001F048
:1022000095FA03214BF6020001F090FA03214BF6F8
:10221000030001F08BFA02214FF43C4001F086FAF2
:1022200000214BF6014001F081FA00214BF60240FB
:1022300001F07CFAD0214FF4494001F077FA0221F5
:102240004CF6011001F072FA50214CF6021001F028
:102250006DFA50214CF6031001F068FA50214CF64B
:10226000041001F063FA00214FF4545001F05EFABB
:1022700055214FF4685001F059FA4FF488502880E6
:10228000782001F0B7FE4FF424502880FDE347F694
:10229000F001E52001F04AFA2146012001F046FA5A
:1022A0003946022001F042FA41F23001032001F0E8
:1022B0003DFA0021042001F039FA4946082001F0D6
:1022C00035FA0021092001F031FA00210A2001F03D
:1022D0002DFA00210C2001F029FA00210D2001F037
:1022E00025FA00210F2001F021FA0021102001F031
:1022F0001DFA0721112001F019FA0021122001F026
:1023000015FA0021132001F011FA0021072001F035
:102310000DFA41F29061102001F008FA40F22721F5
:10232000112001F003FA9D21122001F0FFF94FF472
:10233000C851132001F0FAF92521292001F0F6F9FE
:102340000D212B2001F0F2F90721302001F0EEF9E8
:1023500040F20331312001F0E9F90321322001F08C
:10236000E5F940F20621352001F0E0F90821362098
:1023700001F0DCF940F20641372001F0D7F94FF4C3
:102380004171382001F0D2F90721392001F0CEF94E
:1023900040F202613C2001F0C9F908213D2001F022
:1023A000C5F90021502001F0C1F9EF21512001F0C1
:1023B000BDF90021522001F0B9F92946532001F05E
:1023C000B5F95146602001F0B1F90121612001F019
:1023D000ADF900216A2001F0A9F901E025E0DFE074
:1023E0000021802001F0A2F90021812001F09EF956
:1023F0000021822001F09AF90021832001F096F952
:102400000021842001F092F90021852001F08EF94D
:102410001021902001F08AF94FF4C061922001F060
:1024200085F940F233110720FEE341F28F01EC20E1
:1024300001F07CF941F23421EF2001F077F92146D7
:10244000012001F073F93946022001F06FF941F2E1
:102450003001032001F06AF90021042001F066F93F
:102460004946082001F062F90021092001F05EF9D7
:1024700000210A2001F05AF901210C2001F056F93F
:1024800000210D2001F052F900210F2001F04EF93A
:102490000021102001F04AF90721112001F046F92E
:1024A0000021122001F042F90021132001F03EF931
:1024B0000121072001F03AF9322001F07FFD41F2BD
:1024C0009041102001F032F940F22721112001F053
:1024D0002DF9322001F072FD8A21122001F026F937
:1024E000322001F06BFD4FF4D051132001F01EF9A2
:1024F0000621292001F01AF90D212B2001F016F9EF
:10250000322001F05BFD0021202001F00FF90021B5
:10251000212001F00BF9322001F050FD0021302084
:1025200001F004F940F20461312001F0FFF840F2BB
:102530000531322001F0FAF80021352001F0F6F8DB
:1025400040F60941362001F0F1F85946372001F0F4
:10255000EDF840F20131382001F0E8F83146392039
:1025600001F0E4F800213C2001F0E0F840F60A21F7
:102570003D2001F0DBF8322001F020FD0021502049
:1025800001F0D4F8EF21512001F0D0F800215220C1
:1025900001F0CCF82946532001F0C8F851464DE12E
:1025A0000021084601F0C2F82146012001F0BEF8E2
:1025B0003946022001F0BAF841F23001032001F05F
:1025C000B5F80021042001F0B1F84946082001F0D7
:1025D000ADF80021092001F0A9F800210A2001F03E
:1025E000A5F801210C2001F0A1F800210D2001F037
:1025F0009DF800210F2001F099F8322001F0DEFC57
:1026000040F20111072001F091F8322001F0D6FCD0
:102610004FF48651102001F089F80721112001F0B4
:1026200085F853465146122001F080F84FF430618E
:10263000132001F07BF80021292001F077F844F203
:1026400010012B2001F072F80021502001F06EF8EB
:10265000EF21512001F06AF80021522001F066F8C4
:102660002946532001F062F84FF41C51602001F01C
:102670005DF80121612001F059F800216A2001F084
:1026800055F80021802001F051F80021812001F04F
:102690004DF80021822001F049F80021832001F04B
:1026A00045F80021842001F041F80021852001F047
:1026B0003DF81021902001F039F80021922001F01E
:1026C00035F80121932001F031F81946952001F0E9
:1026D0002DF80021972001F029F80021982001F021
:1026E00025F840F27311072078E341F21401E72046
:1026F00001F01CF82146012001F018F84FF4007198
:10270000022001F013F841F23801032001F00EF825
:102710004946082001F00AF80021092001F006F8D6
:1027200000210A2001F002F800210C2000F0FEFF39
:1027300000210D2000F0FAFF00210F2000F0F6FF2D
:102740000021102000F0F2FF0721112000F0EEFF21
:102750000021122000F0EAFF0021132000F0E6FF24
:10276000C82001F02BFC41F29061102000F0DEFF48
:1027700040F22721112000F0D9FF322001F01EFC89
:102780000C21122000F0D2FF322001F017FC4FF490
:102790000061132000F0CAFF1121292000F0C6FFBC
:1027A0000B212B2000F0C2FF322001F007FC00219A
:1027B000202000F0BBFF2946212000F0B7FF0021B8
:1027C000302000F0B3FF4FF483731946312000F03E
:1027D000ADFF0021322000F0A9FF5946352000F05E
:1027E000A5FF41F20A61362000F0A0FF31463720F4
:1027F00000F09CFF1946382000F098FF3146392040
:1028000000F094FF40F202413C2000F08FFF40F6C0
:102810000F413D2000F08AFF0021502000F086FF8C
:10282000EF21512000F082FF0021522000F07EFFB6
:102830002946532000F07AFF4FF41C51602000F02D
:1028400075FF0121612000F071FF00216A2000F076
:102850006DFF0021802000F069FF0021812000F041
:1028600065FF0021822000F061FF0021832000F03D
:102870005DFF0021842000F059FF0021852000F039
:1028800055FF1021902000F051FF4FF4C0619220BD
:10289000FDE32146012000F049FF3946022000F007
:1028A00045FF41F23001032000F040FF00210420E9
:1028B00000F03CFF40F20721082000F037FF002124
:1028C000092000F033FF00210A2000F02FFF002133
:1028D0000C2000F02BFF00210D2000F027FF00212D
:1028E0000F2000F023FF142001F068FB41F2B061DB
:1028F000102000F01BFF0121112000F017FF012123
:10290000172000F013FF4FF49C71122000F00EFF0F
:102910004FF40061132000F009FF0921292000F085
:1029200005FF09212A2000F001FF0021A42000F06A
:10293000FDFE0021502000F0F9FEEF21512000F0B3
:10294000F5FE0021522000F0F1FE2946532000F050
:10295000EDFE4FF41C51602000F0E8FE01216120E3
:1029600000F0E4FE00216A2000F0E0FE002180205B
:1029700000F0DCFE0021812000F0D8FE0021822042
:1029800000F0D4FE0021832000F0D0FE002184203E
:1029900000F0CCFE0021852000F0C8FE132190201D
:1029A00000F0C4FE0021922000F0C0FE032193201D
:1029B00000F0BCFE5146952000F0B8FE40F27311C5
:1029C000072000F0B3FE322008E10021072000F0CC
:1029D000ADFE322001F0F2FA4FF48E71122000F0B9
:1029E000A5FE0121A42000F0A1FE0F21082000F087
:1029F0009DFE08210A2000F099FE08210D2000F01C
:102A000095FE3146302000F091FE0721312000F084
:102A10008DFE40F20361322000F088FE39463320FB
:102A200000F084FE4946342000F080FE022135206B
:102A300000F07CFE41F60F71362000F077FE314643
:102A4000372000F073FE0021382000F06FFE0021D7
:102A5000392000F06BFE31463A2000F067FE00217D
:102A60003B2000F063FE07213C2000F05FFE0021C8
:102A70003D2000F05BFE322001F0A0FA012107208A
:102A800000F054FE0121172000E0D9E300F04EFED3
:102A9000322001F093FA4FF4BD51102000F046FEB1
:102AA00040F21721112000F041FE4FF48F711220E7
:102AB00000F03CFE4FF47061132000F037FE00215F
:102AC0002A2000F033FE0A21292000F02FFE4FF4C7
:102AD0009F71122000F02AFE0021502000F026FEF7
:102AE000EF21512000F022FE0021522000F01EFEB6
:102AF0002946532000F01AFE4FF41C51602000F0CC
:102B000015FE0121612000F011FE00216A2000F075
:102B10000DFE0021802000F009FE0021812000F040
:102B200005FE0021822000F001FE0021832000F03C
:102B3000FDFD0021842000F0F9FD0021852000F03A
:102B4000F5FD1321902000F0F1FD5146922000F098
:102B5000EDFD0521932000F0E9FD0021952000F016
:102B6000E5FD0021972000F0E1FD0021982000F014
:102B7000DDFD2146012000F0D9FD3946022000F09C
:102B8000D5FD41F23801032000F0D0FD00210420E2
:102B900000F0CCFD00210C2000F0C8FD00210F202A
:102BA00000F0C4FD0021202000F0C0FD0021212004
:102BB00000F0BCFD2121072000F0B8FD142001F039
:102BC000FDF96121072000F0B1FD142001F0F6F9B4
:102BD00040F27311072000F0A9FD142001F0EEF976
:102BE0002EE30021084600F0A1FD0021084600F078
:102BF0009DFD0021084600F099FD0021084600F0E7
:102C000095FD0121A42000F091FD142001F0D6F9DA
:102C10004FF41C5A5146602000F088FD4E4649464C
:102C2000082000F083FD00E0D4E04FF4057130206F
:102C300000F07CFD43F21571312000F077FD40F289
:102C40000461322000F072FD40F61661332000F07E
:102C50006DFD42F21121342000F068FD4FF4A851BF
:102C6000352000F063FD48F20751362000F05EFD8C
:102C700041F20741372000F059FD41F2034138206D
:102C800000F054FD2021392000F050FD1A21902041
:102C900000F04CFD0021102000F048FD072111201C
:102CA00000F044FD0021122000F040FD002113201F
:102CB00000F03CFD142001F081F94FF4E661102092
:102CC00000F034FD40F23711112000F02FFD1420E8
:102CD00001F074F94FF4DC71122000F027FD14208C
:102CE00001F06CF94FF47061132000F01FFD80219A
:102CF0002A2000F01BFD4821292000F017FD142098
:102D000001F05CF92146012000F010FD3946022057
:102D100000F00CFD41F23801032000F007FD3146C0
:102D2000082000F003FD00210A2000F0FFFC002134
:102D30000C2000F0FBFC00210D2000F0F7FC3021FE
:102D40000E2000F0F3FC0021502000F0EFFCEF21FA
:102D5000512000F0EBFC0021522000F0E7FC294656
:102D6000532000F0E3FC5146602000F0DFFC01211D
:102D7000612000F0DBFC00216A2000F0D7FC11216B
:102D8000902000F0D3FC4FF4C061922000F0CEFC04
:102D900040F20241932000F0C9FC0221942000F08F
:102DA000C5FC142001F00AF90121072000F0BEFC47
:102DB000142001F003F96121072000F0B7FC40F274
:102DC0007311072000F0B2FC0021202000F0AEFCBF
:102DD0000021212000F0AAFC222100202EE2002167
:102DE000084600F0A3FC0021084600F09FFC1420D8
:102DF00001F0E4F80021084600F098FC00210846A4
:102E000000F094FC0021084600F090FC00210846E8
:102E100000F08CFC0121A42000F088FC142001F0BB
:102E2000CDF84FF41C51602000F080FC40F6060104
:102E3000082000F07BFC40F203731946302000F0BC
:102E400075FC0121312000F071FC0421322000F0DA
:102E50006DFC4FF48171332000F068FC56465146FA
:102E6000342000F063FC40F20311352000F05EFCDA
:102E70001F21362000F05AFC1946372000F056FC7E
:102E80000121382000F052FC0421392000F04EFCD2
:102E90001521902000F04AFC4FF48261102000F0D0
:102EA00045FC40F24721112000F040FC4FF4DE7158
:102EB000122000F03BFC4FF46061132000F036FC60
:102EC000782001F07BF82146012000F02FFC4FF420
:102ED0000071022000F02AFC41F23001032000F0D2
:102EE00025FC08210A2000F021FC00210C2000F024
:102EF0001DFC20210E2000F019FC00210F2000F005
:102F000015FC0021202000F011FC0021212000F000
:102F10000DFC3D212A2000F009FC142001F04EF8A0
:102F20002D21292000F002FC0021502000F0FEFBA2
:102F30004DF2EF01512000F0F9FB0021522000F08A
:102F4000F5FB2946532000F0F1FB0021612000F041
:102F5000EDFB00216A2000F0E9FB3146922000F0F1
:102F6000E5FB0521932000F0E1FB2146FFF7BBBB09
:102F70000121002000F0DAFB4AF6A401032000F052
:102F8000D5FB00210C2000F0D1FB40F60C010D20F8
:102F900000F0CCFB4FF42C510E2000F0C7FBB02109
:102FA0001E2000F0C3FB42F63F31012000F0BEFBC3
:102FB0004FF4C061022000F0B9FB0021102000F0A6
:102FC000B5FB46F27801112000F0B0FB002105208E
:102FD00000F0ACFB0021062000F0A8FB4EF61C71AF
:102FE000162000F0A3FB0321172000F09FFB40F206
:102FF0003321072000F09AFB00210B2000F096FB04
:1030000000210F2000F092FB0021412000F08EFBF8
:103010000021422000F08AFB0021482000F086FBBE
:103020002946492000F082FB00214A2000F07EFB67
:1030300000214B2000F07AFB4FF46F41442000F058
:1030400075FB0021452000F071FB2946462000F069
:103050006DFB3146302000F069FB5B46594631205C
:1030600000F064FB1946322000F060FB40F202548D
:103070002146332000F05AFB611D342000F056FB3E
:103080001946352000F052FB1946362000E087E152
:1030900000F04CFB2146372000F048FB40F20233A1
:1030A00019463A2000F042FB19463B2000F03EFB57
:1030B0000021232000F03AFB0021242000F036FB01
:1030C0004FF40041252000F031FB00214F2000F09B
:1030D0002DFB00214E20B1E00121002000F026FB55
:1030E0000A2000F06BFF41F22861102000F01EFB67
:1030F0000E21122000F01AFB40F63921132000F0B7
:1031000015FB0A2000F05AFF4021112000F00EFBB1
:103110005021152000F00AFB0A2000F04FFF1E216D
:10312000122000F003FB0A2000F048FF4FF4B151D9
:10313000102000F0FBFA42F63921132000F0F6FAD5
:103140000A2000F03BFF2146012000F0EFFA514633
:10315000022000F0EBFA41F23801032000F0E6FA19
:103160004946082000F0E2FA08210A2000F0DEFAC1
:103170000021302000F0DAFA40F20241312000F064
:10318000D5FA4FF48371322000F0D0FA40F20351A7
:10319000332000F0CBFA4FF48271342000F0C6FAED
:1031A00040F20131352000F0C1FA3146362000F0FE
:1031B000BDFA40F20531372000F0B8FA4FF4027141
:1031C000382000F0B3FA40F60B71392000F0AEFA67
:1031D0000221412000F0AAFA4FF41C51602000F0B7
:1031E000A5FA0121612000F0A1FA4FF404719020AA
:1031F00000F09CFA4FF48571922000F097FA0421B8
:10320000932000F093FA2146A02000F08FFA0121CC
:10321000072000F08BFA2121072000F087FA2321F4
:10322000072000F083FA3321072000F07FFA40F2F4
:103230003311072000F07AFA0021A02000F076FA7E
:103240000020FDF745FE01215848FDF7E2FD40460C
:10325000FDF708FE1FB0BDE8F08F3021152000F00B
:1032600065FA10219A2000F061FA2021112000F067
:103270005DFA43F22841102000F058FA0221122092
:1032800000F054FA41F23801132000F04FFA2820E0
:1032900000F094FE1221084600F048FA282000F0C1
:1032A0008DFE43F22041102000F040FA43F2380135
:1032B000132000F03BFA462000F080FE0021302071
:1032C00000F034FA40F20241312000F02FFA40F2CF
:1032D0000731322000F02AFA4FF44171332000F018
:1032E00025FA0421342000F021FA40F20141352072
:1032F00000F01CFA3146362000F018FA40F2053191
:10330000372000F013FA4FF4C2631946382000F05A
:103310000DFA1946392000F009FA2146012000F083
:1033200005FA5146022000F001FA41F23001032073
:1033300000F0FCF940F60801082000F0F7F9082138
:103340000A2000F0F3F94FF41C51602000F0EEF970
:103350000121612000F0EAF94FF49F71902000F004
:10336000E5F92146922000F0E1F92146932000F092
:10337000DDF94FF44051A02000F0D8F91021A3202E
:1033800000F0D4F90121072000F0D0F92121072015
:1033900000F0CCF92321072000F0C8F933210720E1
:1033A00000F0C4F940F23311E0E50000000C0140E8
:1033B000044910B50880052000F01CFE0148801C5F
:1033C000008810BDFE07006CF0B5524C002321466A
:1033D000A579898846F60402012D18D1914216D0AC
:1033E000082814D2DFE800F00406080A0C0E1012B8
:1033F00006200CE007200AE0042008E0052006E093
:10340000012004E0002002E0032000E00220A1F5FA
:10341000134745F2103645F21055413F05D0914211
:1034200003D0B14201D0A9424BD1082812D2DFE823
:1034300000F0110406080A0C0E1080230AE0402355
:1034400008E0C02306E0202304E0602302E0A0237C
:1034500000E0E023A94202D14FF4585000E03620AA
:10346000B14203D0A94201D043F00803914201D1F7
:1034700043F00203194600F059F9980614D4A079D4
:10348000012811D021886088814201D92080618083
:10349000214BA0889A1CA842A0890CD1A178C01CFD
:1034A0001880491EC8B20AE0208861888842EFD29D
:1034B00021806080ECE71880A078401EC0B21080A8
:1034C000F0BD082812D2DFE800F0040608110A0C4B
:1034D0000E1030230AE0102308E0202306E03823F2
:1034E00004E0282302E0182300E00823A1F50940A6
:1034F00089380AD0A1F50940973806D0032043F453
:103500008051BDE8F04000F011B9112046F24001B1
:103510001943F6E718010020FE07006C2DE9F0437F
:103520001B4F1C4DBC46BA880B46AE1CBCF80C1099
:10353000BCF80A80A2F51344413C16D0A2F5A6447B
:10354000103C12D0B946BC793F88A2F5D04C3F1A46
:103550007F1EBCF1040C08D0A2F5A04CBCF5A26CF7
:1035600008D04D46012C07D007E02980D8B2308022
:10357000BDE8F083491CF8E7B8B20146404600F0C8
:10358000D5F8A889BDE8F043194600F0CFB800008F
:1035900018010020FE07006C2DE9FF4F0C468946FC
:1035A00044490546203AB1F800B0D1B20D981E4604
:1035B000029198B3002075E00C2E0DD03E48029980
:1035C00000EB01114FF0000A11F8087038060AD517
:1035D0003849A1F800B009E0029800EB40013748F3
:1035E00000EB8101EEE733484188018021462846FF
:1035F000FDF76AFD7806070E3148641CA4B2008806
:10360000A84252D9A4EB0900B04208D12C486D1C45
:10361000ADB200884C46A84247D907E009E00AF15C
:10362000010000F0FF0ABAF1080FCFD308F1010042
:10363000C0B28046B042BFD337E00C2E21D01E4826
:10364000029900EB01114FF0000A11F808703806DA
:1036500003D521462846FDF737FD7806070E1848A2
:10366000641CA4B24088A8421FD9A4EB0900B04250
:103670000ED113486D1CADB200884C46A84214D937
:103680000DE0029800EB40010C4800EB8101DAE705
:103690000AF1010000F0FF0ABAF1080FD7D308F1D0
:1036A0000100C0B28046B042C7D30249A1F800B0C1
:1036B000BDE8FF8F8000002052700008DE6B00081C
:1036C000180100202DE9F84F044600F0FF081019FA
:1036D0000D46DDE90A761FFA80FA58191FFA80F9BB
:1036E0004FF0000B11E0544502D3E819444685B26F
:1036F0004D450FD23B4629462046CDF800B0FFF796
:103700004BFF04EB570084B2761C3278A2F1200004
:103710005E28E8D9BDE8F88F02480349008908808F
:103720007047000018010020FE07006C024A10805C
:10373000901C018070470000FE07006C38B5012125
:10374000482000F079F82024ADF8004010208DF8D2
:10375000030003200B4D8DF8020069462846FDF753
:1037600003FB20212846FDF756FBADF80040064C30
:1037700069462046FDF7F8FA20212046FDF74BFB6D
:1037800038BD0000000C014000180140FEE7704702
:1037900030B50F23C27801780125F2B1144A1268BE
:1037A00001F1E02102F4E062C2F5E062120AC2F126
:1037B0000404D3404278A24084781C401443220180
:1037C00081F80024007800F01F018D40400980003E
:1037D00000F1E020C0F8005130BD01F01F0085402D
:1037E0004809800000F1E020C0F8805130BD0000A1
:1037F0000CED00E0024908430249086070470000F0
:103800000000FA050CED00E0044A0029516901D0DE
:10381000014300E081435161704700000010024005
:10382000044A0029D16901D0014300E08143D161FC
:103830007047000000100240044A0029916901D03D
:10384000014300E081439161704700000010024095
:1038500030B5204A5168204B11F00C0103D00429E7
:1038600001D0082901D0036012E05168536801F4C7
:1038700070114FF0020413F4803F04EB914102D029
:1038800053689B0301D5154B00E0134B594301606E
:1038900051680F2303EA1111114B5C5C0168E14090
:1038A00041605468072505EA14241C5D21FA04F4DC
:1038B0008460546805EAD4241B5DD940C160526815
:1038C000032303EA9232064B1B1F9A5CB1FBF2F111
:1038D000016130BD0010024000127A0000093D0075
:1038E000940000200CB50022264800920192016845
:1038F00041F4803101604FF4A063016801F40031AC
:1039000001910099491C0091019911B900999942BE
:10391000F3D10168890333D5012101911A490A685D
:1039200042F010020A600A6822F003020A600A6884
:1039300042F002020A6041684160416841604168AA
:1039400041F480614160416821F47C11416041682B
:1039500041F4E8114160016841F080710160016843
:103960008901FCD5416821F003014160416841F0C3
:10397000020141604168C1F381010229FAD10CBD05
:1039800001920CBD00100240002002402DE9F04FD2
:1039900089B00C4605461C216846FCF716FE2868CF
:1039A0003025312632274FF033084FF034094FF0DD
:1039B000350A4FF0360B089010F1FF4F71D202F02C
:1039C00015FF079002F02EFF089903F088F88B4945
:1039D00002F088FF02F00AFF20212170079A64217B
:1039E00092FBF1F101910A2192FBF1F20292079A06
:1039F00092FBF1F301FB132203922E22227190FB22
:103A0000F1F2059290FBF1F201FB12000690012009
:103A10006A4652F8201091B1012912D0022912D021
:103A2000032912D0042913D0052914D0062915D052
:103A3000072916D0082916D0092916D017E02554D1
:103A400015E0265413E0275411E004F800800EE03E
:103A500004F800900BE004F800A008E004F800B0BF
:103A600005E0372102E0382100E039212154401CD3
:103A70000328CEDD052052F8201099B1012913D07A
:103A8000022913D0032913D0042914D0052915D0F5
:103A9000062916D0072917D0082917D0092917D0C9
:103AA00018E01DE0255415E0265413E0275411E0DA
:103AB00004F800800EE004F800900BE004F800A089
:103AC00008E004F800B005E0372102E0382100E00A
:103AD00039212154401C0628CDDD09B0BDE8F08F06
:103AE00002F084FE079002F09DFE089902F0F7FFB5
:103AF000424902F0F7FE02F079FE2D212170079A6B
:103B0000642192FBF1F101910A2192FBF1F2029200
:103B1000079A92FBF1F301FB132203922E222271EA
:103B200090FBF1F2059290FBF1F201FB120006907E
:103B300001206A4652F8201091B1012912D00229C1
:103B400012D0032912D0042913D0052914D0062934
:103B500015D0072916D0082916D0092916D017E044
:103B6000255415E0265413E0275411E004F8008092
:103B70000EE004F800900BE004F800A008E004F860
:103B800000B005E0372102E0382100E0392121545E
:103B9000401C0328CEDD052052F8201091B10129E8
:103BA00012D0022912D0032912D0042913D00529DA
:103BB00014D0062915D0072916D0082916D00929AE
:103BC00016D017E0255415E0265413E0275411E0D1
:103BD00004F800800EE004F800900BE004F800A068
:103BE00008E004F800B005E0372102E0382100E0E9
:103BF00039212154401C0628CEDD6EE70000C84262
:103C00004FF0E0210428086903D020F00400086187
:103C1000704740F00400FAE710B502F05BFA0128A3
:103C200003D0BDE8104001F049BF10BD0F4810B5EA
:103C3000016841F00101016041680D4A1140416095
:103C400001680C4A11400160016821F48021016083
:103C5000416821F4FE0141604FF41F018160FFF7CC
:103C600041FE05494FF00060086010BD00100240A1
:103C70000000FFF8FFFFF6FE08ED00E02DE9FF5F12
:103C80000C4600210091019102910391006802F01D
:103C9000C9FD3025312632274FF033084FF0340963
:103CA0004FF0350A4FF0360B10F1FF4F45D220216F
:103CB000217002F09BFD642190FBF1F101910A213A
:103CC00090FBF1F2029290FBF1F201FB12000390E3
:103CD00001206A4652F8201091B1012912D0022920
:103CE00012D0032912D0042913D0052914D0062993
:103CF00015D0072916D0082916D0092916D017E0A3
:103D0000255415E0265413E0275411E004F80080F0
:103D10000EE004F800900BE004F800A008E004F8BE
:103D200000B005E0372102E0382100E039212154BC
:103D3000401C0328CEDDBDE8FF9F2D21217002F03D
:103D400055FD642190FBF1F101910A2190FBF1F204
:103D5000029290FBF1F201FB1200039001206A46EF
:103D600052F8201091B1012912D0022912D0032952
:103D700012D0042913D0052914D0062915D00729FB
:103D800016D0082916D0092916D017E0255415E0B9
:103D9000265413E0275411E004F800800EE004F8E4
:103DA00000900BE004F800A008E004F800B005E083
:103DB000372102E0382100E039212154401C03283A
:103DC000CEDDB8E770B5154C40F22551204600F025
:103DD00035F800280ED0204600F0BEF8104AC1B2D7
:103DE0001088030406D444044FF0000306D50A29C2
:103DF00001D0138070BD40F400400DE00D2909D0C2
:103E0000C0F30D04074D401C80B229551080C7280F
:103E1000EFD870BD40F48040108070BD0044004079
:103E200088000020260100200029818902D041F469
:103E3000005101E021F400518181704770B501F01B
:103E40001F0501260024C1F3421306FA05F2012BD7
:103E50000FD0022B0FD0838A4FEA11210088134222
:103E600006FA01F600EA060001D000B1012420465E
:103E700070BD8389F0E7038AEEE710B5C1F3421302
:103E800001F01F040121A140012B07D0022B07D014
:103E90001430002A026805D00A4304E00C30F8E729
:103EA0001030F6E78A43026010BD000030B50446CA
:103EB000008A85B00D464CF6FF710840E988014341
:103EC0002182A0894EF6F3110840A9882A8911435E
:103ED0006A8902431143A181A08A4FF6FF4108403D
:103EE000A9890143A1826846FFF7B2FC19488442C0
:103EF00001D1039800E00298A189090400EBC001F8
:103F000001EB0010296801D5490000E08900B0FBF1
:103F1000F1F06422B0FBF2F109010B096FF0180512
:103F20006B4300EB8300A3891D044FF0320306D5D9
:103F300003EBC000B0FBF2F000F0070005E003EB7C
:103F40000010B0FBF2F000F00F000843208105B034
:103F500030BD0000003801408088C0F30800704781
:103F6000FEE730380A2801D2012070470020704750
:103F70007047000010B50420FFF742FE0C480D49C1
:103F80000D4A0068B0FBF1F3B0FBF1F14FF47A7029
:103F900041431370012050804FF0E020026942F04D
:103FA000020202614161016941F00101016110BD3C
:103FB0006C00002040420F008400002070B50446D1
:103FC00002F088F801280CD0094D6888844203D398
:103FD000B4FBF0F001F046FB6888B4FBF0F100FBA5
:103FE00011444FF47A706043BDE8704000F002B8AD
:103FF0008400002070B54FF0E02500216C69094A6B
:10400000AB6912785043AA699A42FCD002D2A3EB62
:10401000020302E0A4EB0206334419441346814232
:10402000F1D370BD8400002004490A885206FCD5F3
:10403000024AC1B2121D11807047000000440040C6
:104040000025174C4FF47A76616A012906D00229BF
:104050000AD0032910D0042914D01DE011A0FCF7C8
:104060002DF9A168491E04E013A0FCF727F9A16807
:10407000491C16A0A1600CE01BA0FCF71FF9E16829
:10408000491E04E01DA0FCF719F9E168491C20A0B5
:10409000E160FCF713F96562304601F0E3FAD3E71B
:1040A000000000204B657920312069732070726513
:1040B0007373656421090A004B65792032206973A6
:1040C000207072657373656421090A0054656D7010
:1040D000657261747572655F4D696E203D20253093
:1040E0002E316409090900004B657920332069737A
:1040F000207072657373656421090A004B6579202D
:1041000034206973207072657373656421090A0035
:1041100054656D70657261747572655F4D6178206C
:104120003D2025302E316409090900001CB54FF4EB
:104130004070FFF75FFBFFF71DFF4FF4E13001F028
:10414000ADF8FFF7FBFAFCF78FFBFCF7E7FFFCF796
:1041500007FD07490120CDE900010023322205A116
:10416000074801F08BFF01F0DDFB00201CBD0000C3
:104170003000002073746172745F7461736B0000AF
:104180008D4C00082DE9F041184E0F460446F568A5
:104190003068001D01F0D4F838B9306890F82C1060
:1041A00001208840316981433161601C07D137B1FA
:1041B0003168BDE8F0410E48091D01F001B93068D1
:1041C0002C44AC424460316805D2B06BBDE8F0418C
:1041D000091D01F0DDB8706B091D01F0D9F8B06A56
:1041E000844200D2B462BDE8F0810000A400002047
:1041F000000500202DE9F041054601F0EDF82D4EB7
:10420000B068401CB06030682B4F10B1706930B39B
:104210002BE03560B068012827D1002404EB84002E
:1042200007EB800001F0A6F8641C202CF6D323488D
:1042300001F0A0F82148143001F09CF81F48283004
:1042400001F098F81D483C3001F094F81B485030BC
:1042500001F090F8194870631430B06305E03068DD
:10426000E96AC06A884200D83560706A0121401C42
:1042700070626864E86A326981401143316100EB21
:10428000800007EB8000291D01F09AF801F0E0F8AA
:10429000706900280CD03068E96AC06A884207D289
:1042A00007494FF080500860BFF34F8FBFF36F8F07
:1042B000BDE8F081A400002030020020B0040020FE
:1042C00004ED00E010B501F087F80E4C2068A0B9AD
:1042D0000D4801F04FF80C48143001F04BF80A4833
:1042E000E0601430206100221021052001F0FCFB69
:1042F000206010B105A101F081F9BDE8104001F086
:10430000A7B80000E000002014050020546D725191
:104310000000000070B5124E124D1CE001F04CFB85
:10432000306820B1002402F003F8A4B901E00124B0
:10433000F9E701F051F8F068C468201D01F000F8B9
:10434000A868401EA8606868401E686001F080F898
:10435000204600F052F868680028DFD170BD0000E8
:10436000EC040020A400002030B4026C0B46002AAC
:104370000BD0C1681144C1604468A14201D30168F7
:10438000C16030BC1846FCF7D3B830BC70472DE98B
:10439000F041856B174604460026026C82B1C7B116
:1043A000E068FCF7C5F8E168206C091AE160226852
:1043B000914202D26168081AE060022F16D017E01D
:1043C0002068A8B9606801F00DFF06460020606013
:1043D0000EE0A068FCF7ACF8216CA0680844A0606F
:1043E0006168884204D32068A06001E005B16D1EB9
:1043F0006D1CA5633046BDE8F08110B50446006B26
:1044000001F058F82046BDE8104001F053B8000014
:1044100010484FF4A041420706D0C01D0D4920F0BE
:104420000700411AC1F5A0410B4A00230144C2E92B
:1044300000030839103A21F0070111604B600B604E
:104440000B1AC0E9001393604FF000405360D06036
:10445000704700003C05002004010020074E4FF08B
:104460008054074DFFF756FF30680128FAD92C60B9
:10447000BFF34F8FBFF36F8FF4E7000030020020CF
:1044800004ED00E02DE9F047DDE909840E4617460A
:10449000824691009946089DA522206BFCF78DF875
:1044A0006FF00301206B01EB8701084420F0070740
:1044B000780705D040F22B3219A11EA0FBF7FEFEB3
:1044C00000202218315C82F83410315C11B1401C9C
:1044D0001028F6D3002684F84360202D00D31F2532
:1044E000E562C4E91356201D00F04FFF04F11800E7
:1044F00000F04BFF2461C5F120006462A061666595
:1045000084F858604A465146384600F00DFB20605A
:10451000B8F1000F01D0C8F80040BDE8F0870000F6
:104520002E2E5C4672656552544F535C7461736BFA
:10453000732E63004572726F723A25732C25640DD9
:104540000A00000030B5114900E011460A688242B5
:10455000FBD34B685C18844203D140681844486020
:10456000084643681C18944209D1084C103C246842
:10457000A24209D052681A4442600A681268026076
:10458000814200D0086030BD0460F9E704010020DA
:1045900070B5002441600B4D0061914206D8D11ADC
:1045A0008269914206D2011D286907E09A4203D22E
:1045B000994201D3012403E0011DE86800F0E8FE00
:1045C000204670BDE000002010B5044600F004FF56
:1045D000A06B20B1002400F03BFF204610BD012459
:1045E000F9E700002DE9F34100980F460026846C9E
:1045F0002CB940F6CE1216A11AA0FBF75FFEA06BF5
:10460000E16B884205D340F6CF1211A115A0FBF74C
:1046100055FEA06BE16B88420CD294F945503A46A6
:1046200069462046FFF7B3FE0646681C05D06D1CA0
:1046300084F845503046BDE8FC81606A0028F9D016
:1046400004F1240001F028FE0028F3D00126F1E750
:104650002E2E5C4672656552544F535C71756575BC
:10466000652E63004572726F723A25732C25640DB6
:104670000A000000F8B5054614480E46C068C06838
:10468000C468201D00F05CFEE069012817D1A06914
:104690002B46411932462046FFF77AFF78B10020B9
:1046A0000346014600902A46204601F027FF30B914
:1046B00007494FF4027201F11800FBF7FFFD616A30
:1046C00001B02046BDE8F04008470000E0000020AF
:1046D0006064000870B586B02F4E53E00198002842
:1046E00006DADDE90301029A90470198002849DBC8
:1046F000039C606910B1201D00F022FE05A800F0A7
:10470000A7F8054601980A283CD2DFE800F0050525
:10471000053B273805053B270298A169034601445C
:104720002A462046FFF734FF00282BD0616A204636
:104730008847E069012825D1002000900298A169EE
:10474000002342181946204601F0D8FED0B940F2A5
:10475000213212A117A0FBF7B1FD13E00298A0616E
:1047600028B94FF44E720DA112A0FBF7A7FDA06966
:104770002B4641191A462046FFF70AFF02E0204661
:1047800000F098FE00231A4601A9306801F0E8F90C
:104790000028A3D106B070BDE00000202E2E5C469C
:1047A00072656552544F535C74696D6572732E6304
:1047B000000000004572726F723A25732C25640D5B
:1047C0000A000000F8B50D46064601F0F5F8684607
:1047D00000F03EF80446009810B101F0A9FDF8BDC4
:1047E0001148ADB101690968D9B10025311B2A46CC
:1047F000006800F015FF01F09BFD0028EFD10B4988
:104800004FF080500860BFF34F8FBFF36F8FF8BD3C
:10481000A642EBD801F08CFD21463046FFF72AFF77
:10482000F8BD0125E2E70000E000002004ED00E013
:104830000648416B096829B1416BC968C968496874
:10484000816270474FF0FF31FAE70000A4000020BA
:1048500070B5054601F04CFC064E0446B068844233
:1048600003D200F009F8012000E000202860204673
:10487000B46070BDE0000020F8B5184E26E0C068B6
:10488000C4680568201D00F05BFD616A204688470A
:10489000E06901281AD1A0692844A84206D92461F8
:1048A0006060211DF06800F073FD0FE000200346FA
:1048B000014600902A46204601F020FE30B9084902
:1048C00040F2923201F11800FBF7F8FCF068016841
:1048D0000029D4D13169C6E90310F8BDE0000020F9
:1048E00060640008002101E0401C491C0278A52AF0
:1048F000FAD0C1F38F00704708484068401C04D0CC
:10490000F42207A111A0FBF7D9FC502080F31188F5
:10491000BFF34F8FBFF36F8FFEE700000C01002045
:104920002E2E5C4672656552544F535C706F7274E4
:1049300061626C655C525644535C41524D5F434D1D
:10494000335C706F72742E63000000004572726FEA
:10495000723A25732C25640D0A000000084CE068AB
:10496000016839B1002139B10020FFF72BFFFFF7B3
:10497000B1FEF4E70121F6E7C0680068F5E7000042
:10498000E00000202DE9F041044600F025FD94F9F7
:10499000455004F1240610E0A06C20B1002120460F
:1049A000FFF720FE04E0606A48B1304601F074FC75
:1049B00008B100F0F3FE6D1E6DB2002DECDC4FF07F
:1049C000FF3684F8456000F043FD00F005FD94F9E2
:1049D000445004F1100709E0206948B1384601F05D
:1049E0005BFC08B100F0DAFE6D1E6DB2002DF3DC49
:1049F00084F84460BDE8F04100F02ABD2DE9F041A3
:104A00000546002600F0D8FF324F386808B9FFF796
:104A1000FFFCF86805424FD1002D4DD008356807DE
:104A20000BD005F00700C0F108000544680704D06A
:104A3000BF2229A132A0FBF741FC002D3CD07868B1
:104A4000854239D8234910310846046801E02146DF
:104A500004466068A84202D220680028F7D138686E
:104A6000B846844228D00E6820680860606808361E
:104A7000401B10280ED96719780704D0EC2216A124
:104A80001FA0FBF71BFC6068401B78603846656020
:104A9000FFF758FD6168D8F804004246401AC8F88C
:104AA0000400D8F80830984200D29060D8F80C0082
:104AB00001430020C4E9000101F03AFC700705D071
:104AC0004FF4967204A10EA0FBF7F8FB3046BDE848
:104AD000F0810000F40000202E2E5C4672656552C5
:104AE000544F535C706F727461626C655C4D656DA0
:104AF0004D616E675C686561705F342E6300000015
:104B00004572726F723A25732C25640D0A000000FD
:104B10000449086818B10868026D521C02650868EB
:104B200070470000A400002010B5031F4FF08074F0
:104B30001C601B1F21F001011960191F024B0B6043
:104B4000143940380A6010BDF9480008184C4FF479
:104B5000FA65E06B00F006FC014616A0FBF7AEFB21
:104B6000A06B00F0FFFB01461BA0FBF7A7FB606BEF
:104B700000F0F8FB014621A0FBF7A0FB206B00F042
:104B8000F1FB014626A0FBF799FB206C00F0EAFB45
:104B900001462CA0FBF792FB606C00F0E3FB0146A2
:104BA00031A0FBF78BFB284600F05CFDD1E700004D
:104BB0000000002071756572795F7461736B206D00
:104BC000696E5F737461636B203D20256420202033
:104BD000200D0A20000000007461736B315F64696E
:104BE00073706C6179206D696E5F737461636B20A3
:104BF0003D202564200D0A20000000006B65795FD0
:104C00007461736B206D696E5F737461636B203DBB
:104C10002025642020202020200D0A2000000000F4
:104C200073746172745F7461736B206D696E5F730E
:104C30007461636B203D202564202020200D0A2014
:104C4000000000007461736B335F6765745F6461BB
:104C50007461206D696E5F737461636B203D202504
:104C6000640D0A20000000007461736B345F416CB6
:104C700061726D206D696E5F737461636B203D209E
:104C800025642020200D0A20000000001CB500F043
:104C9000A3FB03220021012000F026FF2A4C00285C
:104CA000A0624CD029A0FBF709FB032200210120C0
:104CB00000F01AFFE062A06A002842D02EA0FBF7A5
:104CC000FDFA214902203431CDE9000100233622CA
:104CD00034A1374801F0D2F91B4903203831CDE91E
:104CE00000010023302233A1364801F0C7F91649EC
:104CF00004203C31CDE9000100233C2232A135489B
:104D000001F0BCF9104906204031CDE90001002333
:104D10002C2231A1344801F0B1F90B49052044316E
:104D2000CDE9000100232C2230A1334801F0A6F97F
:104D3000206B00F0CDFCBDE81C4000F089BB2FA02B
:104D4000B1E738A0BBE700000000002043726561B6
:104D5000746520416C61726D5F42696E6172795356
:104D6000656D6170686F72652073756363657373D9
:104D700021210D0A0000000043726561746520471F
:104D800065745F446174615F42696E6172795365F5
:104D90006D6170686F7265207375636365737321ED
:104DA000210D0A006B65795F7461736B0000000070
:104DB000414000087461736B315F646973706C61AA
:104DC00079000000514E000871756572795F746159
:104DD000736B00004D4B00087461736B335F676544
:104DE000745F646174610000F15100087461736B59
:104DF000345F416C61726D001D5200084372656141
:104E0000746520416C61726D5F42696E61727953A5
:104E1000656D6170686F7265206661696C6564219B
:104E2000210D0A00437265617465204765745F4413
:104E30006174615F42696E61727953656D6170681A
:104E40006F7265206661696C656421210D0A00003E
:104E50001CB5DFF8C4A2B14D10244FF0000B1F2782
:104E6000AF4EB06A00287CD000235A1E1946B146C6
:104E700000F076FE4FF6FF70FBF7F4FF4FF4784634
:104E80002E80A8A0CDE9004014211023C822084696
:104E9000FEF718FCAAA0CDE9004028211023C82263
:104EA0000846FEF70FFC2F80AAA0CDE90040102392
:104EB000C82250211420FEF705FC99499848483132
:104EC000FEF764FD96482E804830CDE9004010235F
:104ED000C82250217820FEF7F5FB2F80A1A0CDE954
:104EE00000401023C82264211420FEF7EBFB8C49FC
:104EF0005931A1F15500FEF749FD89482E805930FE
:104F0000CDE900401023C82264217820FEF7DAFBA7
:104F10002F8097A0CDE900401023C8228C211420B7
:104F2000FEF7D0FB7E491831A1F11000FEF7A6FE76
:104F3000DFF8EC812E8008F11808CDE90048102335
:104F4000C8228C215F20FEF7BDFB2E808BA0CDE90F
:104F500000401023C8228C218720FEF7B3FB414676
:104F600000E0D7E0A1F10C00FEF788FECDE9004893
:104F70001023C8228C219120FEF7A4FB80A0CDE94C
:104F800000401023C8228C21C320FEF79BFB2F80FA
:104F90007CA0CDE900401023C822A0211420FEF7F8
:104FA00091FB4146A1F10800FEF768FE2E80CDE995
:104FB00000481023C822A0215F20FEF783FB2E802B
:104FC0006EA0CDE900401023C822A0218720FEF763
:104FD00079FB4146081FFEF751FECDE9004810233A
:104FE000C822A0219120FEF76DFB69A0CDE9004009
:104FF0001023C822A021C320FEF764FBD9F81C00AF
:1050000001280DD163A0CDE90040C822102311462C
:105010001420FEF757FB0120CAF8A001C9F81CB004
:10502000D9F820004E4601280DD162A0CDE90040FC
:105030001023C822DC211420FEF744FB0120CAF80B
:10504000A001C6F820B04FF4967843467822FA21A2
:105050003C20FCF747F84FF4877943465A224946EB
:105060003C20FCF73FF84346782249465A20FCF79B
:1050700039F82F8056A0CDE900401023C822FD2129
:105080004B20FEF71FFB54A0CDE900404FF48C7677
:105090001023C82231464120FEF714FB4FA0CDE972
:1050A00000401023C82231465F20FEF70BFB434629
:1050B000B422FA217820FCF715F843469622494697
:1050C0007820FCF70FF84346B42249469620FCF7B7
:1050D00009F82F8042A0CDE900401023C822FD210D
:1050E0008720FEF7EFFA40A0CDE900401023C82248
:1050F00031467D20FEF7E6FA3CA0CDE900401023C2
:10510000C82231469B20FEF7DDFA4FF47A7000F09A
:10511000A9FAA5E60A20FAE70080214280000020D3
:105120000000002054656D706572617475726520B1
:10513000616E642048756D696469747900000000CF
:105140004D6F6E69746F72696E6720537973746501
:105150006D00000054656D70657261747572653A1A
:105160002000000048756D69646974793A20000078
:1051700052616E676520543A000000002D00000067
:105180004300000052616E676520483A000000004D
:105190002500000054656D7065726174757265203C
:1051A0006973206F7574206F662072616E67652168
:1051B0002121000048756D697479206973206F752D
:1051C00074206F662072616E6765212121000000E6
:1051D0004D696E2D540000002D5331002B533200C9
:1051E0004D61782D540000002D5333002B533400B3
:1051F000094C4FF4FA650849091D081FFBF786FBA7
:1052000028B900231A461946E06A00F0BFFD284677
:1052100000F028FAEFE70000000000201D4C0125F7
:10522000A06A98B300235A1E1946E06A00F098FC61
:1052300019490020C1F8A001E06801F0F3FA2168E3
:1052400001F01CFB06D3A06801F0ECFA216801F024
:1052500015FC00D2E561606901F0E4FA616801F0D3
:105260000DFB06D3206901F0DDFA616801F006FC50
:1052700000D22562A06A20B100231A46194600F028
:1052800085FD4FF47A7000F0EDF9C9E7FFE764207F
:10529000F9E700000000002000802142F0B5074639
:1052A000012187B04804FEF7BBFA01210420FEF774
:1052B000C3FA0425ADF8105003248DF812401820CD
:1052C0001D4E8DF8130004A93046FBF74DFD082054
:1052D000ADF810008DF8135004A93046FBF744FDDB
:1052E00026208DF814008DF815408DF81640012009
:1052F0008DF8170005A8FEF74BFA0020ADF8040062
:10530000ADF80600ADF80800ADF80C000C200B4C11
:10531000ADF80A00009769462046FEF7C7FD012256
:1053200040F225512046FEF7A8FD01212046FEF758
:105330007BFD07B0F0BD00000008014000440040C4
:10534000D0E9013201699A60D0E901235A604A68C4
:10535000824201D182684A60002202610868401ED0
:105360000860704708B902480068006BFFF7BABAD6
:10537000A400002000F108014FF0FF32C0E9011243
:10538000C160016100210160704700210161704727
:1053900030B50C68621C02D000F1080202E002691C
:1053A00004E01A4653681D68A542FAD953684B6059
:1053B00099608A60516008610168491C016030BDD4
:1053C00042684A6093688B60936859609160086195
:1053D0000168491C01607047502080F31188BFF3B9
:1053E0004F8FBFF36F8F09494868401C4860012800
:1053F0000AD10748006810F0FF0F05D04FF4BD72C6
:1054000004A10FA0FAF75ABF704700000C0100205A
:1054100004ED00E02E2E5C4672656552544F535CDD
:10542000706F727461626C655C525644535C415299
:105430004D5F434D335C706F72742E63000000004B
:105440004572726F723A25732C25640D0A000000B4
:1054500010B5084C606828B940F2811206A111A06D
:10546000FAF72CFF6068401E606001D180F311885C
:1054700010BD00000C0100202E2E5C4672656552A6
:10548000544F535C706F727461626C655C52564429
:10549000535C41524D5F434D335C706F72742E63A9
:1054A000000000004572726F723A25732C25640D5E
:1054B0000A00000070B500282AD0164DA0F108049B
:1054C0006068E968084205D14FF4A07212A11CA0DF
:1054D000FAF7F4FE206828B140F241120EA118A09C
:1054E000FAF7ECFE6068E968084211D02268002AE9
:1054F0000ED18843606000F05FFA60686968084414
:1055000068602046FFF71EF8BDE8704000F010BF4D
:1055100070BD0000F40000202E2E5C4672656552BE
:10552000544F535C706F727461626C655C4D656D55
:105530004D616E675C686561705F342E63000000CA
:105540004572726F723A25732C25640D0A000000B3
:1055500006484FF47A710068B0FBF1F14FF0E0209B
:10556000491E416107210161704700006C00002065
:1055700010B5FAF77DFE104C10280CD300F1E02096
:1055800090F8F0032178884205D24FF42A720BA1DB
:1055900015A0FAF793FE18480068A16800F4E060CF
:1055A000884207D9BDE810404FF42E7203A10EA027
:1055B000FAF784BE10BD00000C0100202E2E5C46C0
:1055C00072656552544F535C706F727461626C65A2
:1055D0005C525644535C41524D5F434D335C706F97
:1055E00072742E63000000004572726F723A257368
:1055F0002C25640D0A0000000CED00E010B5074BEF
:10560000002253F832401CB1521C082AF9D310BDB5
:1056100043F8321003EBC201486010BDF0010020D6
:1056200070B515460E460446FFF7D6FE94F94410B1
:105630000020491C01D184F8440094F94510491C0C
:1056400001D184F84500FFF703FFA06B28B92A4673
:10565000314604F1240000F0D1F82046BDE8704046
:10566000FFF790B910B5040012D00E49096B29B1AB
:1056700040F2CF420CA111A0FAF720FE00F09CF9F5
:1056800000212046FEF77EFD00F052FE002807D1E3
:105690000E494FF080500860BFF34F8FBFF36F8FFC
:1056A00010BD0000A40000202E2E5C4672656552DD
:1056B000544F535C7461736B732E63004572726F49
:1056C000723A25732C25640D0A00000004ED00E0F9
:1056D00070B50446FFF780FE234D04B92C68201DE9
:1056E000FFF72EFE58B9E06A204A00EB800152F81D
:1056F000211021B901218140286988432861A06ACD
:1057000018B104F11800FFF71BFE686A401C6862BC
:105710002868844207D1211D1548FFF751FE6868AB
:10572000401C686007E0A868401EA8602046FEF79D
:1057300064FEFFF77DF8FFF78BFE6869002812D042
:10574000286884420FD1286B28B140F2654209A134
:105750000DA0FAF7B3FD10494FF080500860BFF379
:105760004F8FBFF36F8F70BDA40000203002002068
:10577000EC0400202E2E5C4672656552544F535C3B
:105780007461736B732E63004572726F723A257386
:105790002C25640D0A00000004ED00E00149012001
:1057A000C8617047A400002070B50D46040005D103
:1057B00040F6063207A10CA0FAF780FD0E480168FA
:1057C00020461831FFF7E4FD2846BDE8704001216E
:1057D000FEF7D8BC2E2E5C4672656552544F535C62
:1057E0007461736B732E63004572726F723A257326
:1057F0002C25640D0A000000A400002070B514469A
:105800000E46050005D140F6313209A10DA0FAF788
:1058100055FD1048016828461831FFF7D1FD0CB13D
:105820004FF0FF3621463046BDE87040FEF7AABC77
:105830002E2E5C4672656552544F535C7461736BD7
:10584000732E63004572726F723A25732C25640DB6
:105850000A000000A400002070B5040039D01D4DDE
:10586000E06A2968C96A884233D2A069002804DB4B
:105870002868C06AC0F12000A061E06A164E00EB03
:105880008000616906EB800081421FD1201DFFF777
:1058900057FD012150B9E06A00EB800256F8222042
:1058A00022B92A6901FA00F082432A612868C06A95
:1058B000E0622A6981401143296100EB800006EB18
:1058C0008000211DBDE87040FFF77ABD2868C06ADE
:1058D000E06270BDA40000203002002010B504007A
:1058E00005D140F6C13205A109A0FAF7E7FC0C4842
:1058F000016A2160C068606010BD00002E2E5C4609
:1059000072656552544F535C7461736B732E630000
:105910004572726F723A25732C25640D0A000000DF
:10592000A40000201CB517480024CDE90040234600
:10593000822215A1164800F0A1FB012803D100F036
:10594000A3FD01280AD0401C1BD102B040F2847292
:10595000BDE810400FA114A0FAF7B0BC502080F3AE
:105960001188BFF34F8FBFF36F8F06484FF0FF31A1
:105970002C38816201214161C460BDE81C4000F007
:1059800061B81CBDD000002049444C450000000017
:105990005D4400082E2E5C4672656552544F535C80
:1059A0007461736B732E63004572726F723A257364
:1059B0002C25640D0A0000000248016B491C01639C
:1059C00070470000A400002070B5134D286B10B183
:1059D0000120E86170BD0020E86128690F4EB0FA2F
:1059E00080F0C0F11F0000EB800456F8240028B9B5
:1059F00040F6F6220AA10FA0FAF760FC06EB84003D
:105A000000F10802416849684160914201D149684A
:105A10004160C868286070BDA400002030020020EA
:105A20002E2E5C4672656552544F535C7461736BE5
:105A3000732E63004572726F723A25732C25640DC4
:105A40000A0000001CB51A4908780190FF20087070
:105A500008788DF800009DF80000164A00F050000C
:105A600010700720906007E09068401E90609DF8DD
:105A7000000040008DF800009DF800000006F3D4FF
:105A8000107A000200F4E0609060019808700A4803
:105A9000016841F470010160016841F070410160EA
:105AA000FFF756FD00205060FAF7ACFB00201CBD4C
:105AB00000E400E00C01002020ED00E010B55020D3
:105AC00080F31188BFF34F8FBFF36F8F00F016FB89
:105AD00018B104494FF080500860002080F311880D
